{
  "transactions": [
    {
      "hash": "0x75096c500c927881cd9027ab444ebc0b7c77c255b8f43c32140894a63c65d113",
      "transactionType": "CALL",
      "contractName": null,
      "contractAddress": "0xe768f5a5f9ddb3cfc6fdca242c8437d7306a11a8",
      "function": "createDuel((string,string,string,uint256,uint256,address,uint256))",
      "arguments": [
        "(\"Test VS Test\", \"This is a description of test vs test\", \"Test function fighting test function\", 1722971241, 1722970341, 0xa4563Cc4619191bE18C3A01Cc50D37EB456d102a, 0)"
      ],
      "transaction": {
        "from": "0xa4563cc4619191be18c3a01cc50d37eb456d102a",
        "to": "0xe768f5a5f9ddb3cfc6fdca242c8437d7306a11a8",
        "gas": "0xac557",
        "value": "0x1178190adc3a9",
        "input": "0xc3bee495000000000000000000000000000000000000000000000000000000000000002000000000000000000000000000000000000000000000000000000000000000e0000000000000000000000000000000000000000000000000000000000000012000000000000000000000000000000000000000000000000000000000000001800000000000000000000000000000000000000000000000000000000066b274690000000000000000000000000000000000000000000000000000000066b270e5000000000000000000000000a4563cc4619191be18c3a01cc50d37eb456d102a0000000000000000000000000000000000000000000000000000000000000000000000000000000000000000000000000000000000000000000000000000000c54657374205653205465737400000000000000000000000000000000000000000000000000000000000000000000000000000000000000000000000000000025546869732069732061206465736372697074696f6e206f66207465737420767320746573740000000000000000000000000000000000000000000000000000000000000000000000000000000000000000000000000000000000000000000024546573742066756e6374696f6e206669676874696e6720746573742066756e6374696f6e00000000000000000000000000000000000000000000000000000000",
        "nonce": "0x5",
        "chainId": "0xa4b1"
      },
      "additionalContracts": [],
      "isFixedGasLimit": false
    }
  ],
  "receipts": [
    {
      "status": "0x1",
      "cumulativeGasUsed": "0x26fd02",
      "logs": [
        {
          "address": "0x975bcd720be66659e3eb3c0e4f1866a3020e493a",
          "topics": [
            "0x61ed099e74a97a1d7f8bb0952a88ca8b7b8ebd00c126ea04671f92a81213318a"
          ],
          "data": "0x00000000000000000000000031cae3b7fb82d847621859fb1585353c5720660d0000000000000000000000000000000000000000000000000001161ab25ec071",
          "blockHash": "0x9520a35478fc029d3ccd6656b10f6b08e3731c04c3b0115e5d18737e608ac8f9",
          "blockNumber": "0xe4fceec",
          "transactionHash": "0x75096c500c927881cd9027ab444ebc0b7c77c255b8f43c32140894a63c65d113",
          "transactionIndex": "0x3",
          "logIndex": "0x14",
          "removed": false
        },
        {
          "address": "0x975bcd720be66659e3eb3c0e4f1866a3020e493a",
          "topics": [
            "0x07ea52d82345d6e838192107d8fd7123d9c2ec8e916cd0aad13fd2b60db24644"
          ],
          "data": "0x000000000000000000000000000000000000000000000000000000000000006000000000000000000000000000000000000000000000000000000000000000c000000000000000000000000000000000000000000000000000000000000000e000000000000000000000000000000000000000000000000000000000000000020000000000000000000000002f55c492897526677c5b68fb199ea31e2c126416000000000000000000000000d56e4eab23cb81f43168f9f45211eb027b9ac7cc00000000000000000000000000000000000000000000000000000000000000000000000000000000000000000000000000000000000000000000000000000002000000000000000000000000000000000000000000000000000000b36f27819c000000000000000000000000000000000000000000000000000000b36f27819c",
          "blockHash": "0x9520a35478fc029d3ccd6656b10f6b08e3731c04c3b0115e5d18737e608ac8f9",
          "blockNumber": "0xe4fceec",
          "transactionHash": "0x75096c500c927881cd9027ab444ebc0b7c77c255b8f43c32140894a63c65d113",
          "transactionIndex": "0x3",
          "logIndex": "0x15",
          "removed": false
        },
        {
          "address": "0x1a44076050125825900e736c501f859c50fe728c",
          "topics": [
            "0x1ab700d4ced0c005b164c0f789fd09fcbb0156d4c2041b8a3bfbcd961cd1567f"
          ],
          "data": "0x00000000000000000000000000000000000000000000000000000000000000600000000000000000000000000000000000000000000000000000000000000360000000000000000000000000975bcd720be66659e3eb3c0e4f1866a3020e493a00000000000000000000000000000000000000000000000000000000000002d10100000000000000010000759e000000000000000000000000e768f5a5f9ddb3cfc6fdca242c8437d7306a11a8000075ae000000000000000000000000f0db811f8edffc9dbe0ef99fbbafaacf6df7e3f03c7dcca18ac20c19db2498518f55a39144b06e0d9abefbc6690cc1608a7127e41c40065c000000000000000000000000000000000000000000000000000000000000000000000000000000000000000000000000000000000000000000000080000000000000000000000000000000000000000000000000000000000000a4b1000000000000000000000000a4563cc4619191be18c3a01cc50d37eb456d102a00000000000000000000000000000000000000000000000000000000000000e0000000000000000000000000000000000000000000000000000000000000012000000000000000000000000000000000000000000000000000000000000001800000000000000000000000000000000000000000000000000000000066b274690000000000000000000000000000000000000000000000000000000066b270e5000000000000000000000000a4563cc4619191be18c3a01cc50d37eb456d102a0000000000000000000000000000000000000000000000000000000000000000000000000000000000000000000000000000000000000000000000000000000c54657374205653205465737400000000000000000000000000000000000000000000000000000000000000000000000000000000000000000000000000000025546869732069732061206465736372697074696f6e206f66207465737420767320746573740000000000000000000000000000000000000000000000000000000000000000000000000000000000000000000000000000000000000000000024546573742066756e6374696f6e206669676874696e6720746573742066756e6374696f6e0000000000000000000000000000000000000000000000000000000000000000000000000000000000000000000000000000000000000000000000000000000000000000000000000000160003010011010000000000000000000000000007a12000000000000000000000",
          "blockHash": "0x9520a35478fc029d3ccd6656b10f6b08e3731c04c3b0115e5d18737e608ac8f9",
          "blockNumber": "0xe4fceec",
          "transactionHash": "0x75096c500c927881cd9027ab444ebc0b7c77c255b8f43c32140894a63c65d113",
          "transactionIndex": "0x3",
          "logIndex": "0x16",
          "removed": false
        }
      ],
      "logsBloom": "0x00000000000000000000000000000000000000000000000000000000001000000000000000000000000000000000000000000000000400000000000000000000000000000000000000000000000000000000000000000000000000000000000000000000000800008000000000000000000000000010000000000000000000000000000000000000000000080000000000000000000000000000000000000000000000008000000000100000000000000000000000400000000440000000008000000000000000000000000000000000000000000000000000000000000000000000040000000000000000000000002000000000010000000000000000000000",
      "type": "0x2",
      "transactionHash": "0x75096c500c927881cd9027ab444ebc0b7c77c255b8f43c32140894a63c65d113",
      "transactionIndex": "0x3",
      "blockHash": "0x9520a35478fc029d3ccd6656b10f6b08e3731c04c3b0115e5d18737e608ac8f9",
      "blockNumber": "0xe4fceec",
      "gasUsed": "0x7c9aa",
      "effectiveGasPrice": "0x989680",
      "from": "0xa4563cc4619191be18c3a01cc50d37eb456d102a",
      "to": "0xe768f5a5f9ddb3cfc6fdca242c8437d7306a11a8",
      "contractAddress": null,
      "gasUsedForL1": "0x1566f",
      "l1BlockNumber": "0x1385db0"
    }
  ],
  "libraries": [],
  "pending": [],
  "returns": {},
  "timestamp": 1722967666,
  "chain": 42161,
  "commit": "a3cdc17"
}