{
  "transactions": [
    {
      "hash": "0x2ddb4fa17a2cf81a335675d3774b11ce1224e592bd33756e3776cae7557e08be",
      "transactionType": "CALL",
      "contractName": null,
      "contractAddress": "0x55e038ed52627a676a42063e9b2f0b44bdf43f6d",
      "function": "changeEId(uint256,uint32)",
      "arguments": [
        "137",
        "30109"
      ],
      "transaction": {
        "from": "0xa4563cc4619191be18c3a01cc50d37eb456d102a",
        "to": "0x55e038ed52627a676a42063e9b2f0b44bdf43f6d",
        "gas": "0x1cca8",
        "value": "0x0",
        "input": "0x6095e3a30000000000000000000000000000000000000000000000000000000000000089000000000000000000000000000000000000000000000000000000000000759d",
        "nonce": "0x24",
        "chainId": "0x504"
      },
      "additionalContracts": [],
      "isFixedGasLimit": false
    },
    {
      "hash": "0x0d326ab99263ec590ebbabcaab5958b7761b06610aac507d5ce7f17c38c87657",
      "transactionType": "CALL",
      "contractName": null,
      "contractAddress": "0x55e038ed52627a676a42063e9b2f0b44bdf43f6d",
      "function": "setPeer(uint32,bytes32)",
      "arguments": [
        "30109",
        "0x000000000000000000000000abaabf95182937c379de2fc5689909e1f4c05bc2"
      ],
      "transaction": {
        "from": "0xa4563cc4619191be18c3a01cc50d37eb456d102a",
        "to": "0x55e038ed52627a676a42063e9b2f0b44bdf43f6d",
        "gas": "0x1cd34",
        "value": "0x0",
        "input": "0x3400288b000000000000000000000000000000000000000000000000000000000000759d000000000000000000000000abaabf95182937c379de2fc5689909e1f4c05bc2",
        "nonce": "0x25",
        "chainId": "0x504"
      },
      "additionalContracts": [],
      "isFixedGasLimit": false
    }
  ],
  "receipts": [
    {
      "status": "0x1",
      "cumulativeGasUsed": "0x180084",
      "logs": [
        {
          "address": "0x55e038ed52627a676a42063e9b2f0b44bdf43f6d",
          "topics": [
            "0xe033838dc7df453f29bda75c7230f113cdb5bd371f7026646a851449586db639",
            "0x0000000000000000000000000000000000000000000000000000000000000089",
            "0x000000000000000000000000000000000000000000000000000000000000759d"
          ],
          "data": "0x",
          "blockHash": "0x6895ddff1cfa5906c19826bea7aaaab6c195f2c64446a9164f2c79bc221b818c",
          "blockNumber": "0x666010",
          "transactionHash": "0x2ddb4fa17a2cf81a335675d3774b11ce1224e592bd33756e3776cae7557e08be",
          "transactionIndex": "0x6",
          "logIndex": "0x8",
          "removed": false
        }
      ],
      "logsBloom": "0x00000000000001000000000008000000000000000000000000001000000000000000000000000000000000000000000000000000000000000000100000000000000000000000000000000000000000000000010000000000000000000000000000000000000000800000000000000000000000000000000000000000000000000400000000000000000000000002000000000000000000000000000000000000000000000000000000000000000000000000000000000000000000000000001000000000000000000000000000001000000000010000000000000000000000000000000000000000000000000000000000000000000000000000000000000080",
      "type": "0x2",
      "transactionHash": "0x2ddb4fa17a2cf81a335675d3774b11ce1224e592bd33756e3776cae7557e08be",
      "transactionIndex": "0x6",
      "blockHash": "0x6895ddff1cfa5906c19826bea7aaaab6c195f2c64446a9164f2c79bc221b818c",
      "blockNumber": "0x666010",
      "gasUsed": "0x15e24",
      "effectiveGasPrice": "0x2257af6300",
      "from": "0xa4563cc4619191be18c3a01cc50d37eb456d102a",
      "to": "0x55e038ed52627a676a42063e9b2f0b44bdf43f6d",
      "contractAddress": null
    },
    {
      "status": "0x1",
      "cumulativeGasUsed": "0x91e64",
      "logs": [
        {
          "address": "0x55e038ed52627a676a42063e9b2f0b44bdf43f6d",
          "topics": [
            "0x238399d427b947898edb290f5ff0f9109849b1c3ba196a42e35f00c50a54b98b"
          ],
          "data": "0x000000000000000000000000000000000000000000000000000000000000759d000000000000000000000000abaabf95182937c379de2fc5689909e1f4c05bc2",
          "blockHash": "0x184380e58455571d21bea5ee616f68ede47dcff4fe52b95552d6e61854cbe56a",
          "blockNumber": "0x666013",
          "transactionHash": "0x0d326ab99263ec590ebbabcaab5958b7761b06610aac507d5ce7f17c38c87657",
          "transactionIndex": "0x3",
          "logIndex": "0x3",
          "removed": false
        }
      ],
      "logsBloom": "0x00000000000000000000000000000000000000000000000000000000000000000000000000000000000000000000000000000000000000000800000000000000000000000000000000000000000000000000010000000000000000000000000000000000000000000000000000000000000000000000000000000000000000000000000000000000000000000000000000000000000000000000000000000000000000000000000000000000000000000000000000000000000002000000000000000000000000000000000000000000000000010000000000040000000000000000000000000000000000000000000000000000000000000000000000000080",
      "type": "0x2",
      "transactionHash": "0x0d326ab99263ec590ebbabcaab5958b7761b06610aac507d5ce7f17c38c87657",
      "transactionIndex": "0x3",
      "blockHash": "0x184380e58455571d21bea5ee616f68ede47dcff4fe52b95552d6e61854cbe56a",
      "blockNumber": "0x666013",
      "gasUsed": "0x15ea4",
      "effectiveGasPrice": "0x2257af6300",
      "from": "0xa4563cc4619191be18c3a01cc50d37eb456d102a",
      "to": "0x55e038ed52627a676a42063e9b2f0b44bdf43f6d",
      "contractAddress": null
    }
  ],
  "libraries": [],
  "pending": [],
  "returns": {},
  "timestamp": 1721758115,
  "chain": 1284,
  "commit": "a756be8"
}