{
  "transactions": [
    {
      "hash": "0x3c0992db2f45111825682a0cc08d3b28d05b0179fead77e5efa76ddc430b0e05",
      "transactionType": "CALL",
      "contractName": null,
      "contractAddress": "0xc2132d05d31c914a87c6611c10748aeb04b58e8f",
      "function": "approve(address,uint256)",
      "arguments": [
        "0xaBaAbF95182937c379de2Fc5689909e1F4C05BC2",
        "5000000"
      ],
      "transaction": {
        "from": "0xa4563cc4619191be18c3a01cc50d37eb456d102a",
        "to": "0xc2132d05d31c914a87c6611c10748aeb04b58e8f",
        "gas": "0x11712",
        "value": "0x0",
        "input": "0x095ea7b3000000000000000000000000abaabf95182937c379de2fc5689909e1f4c05bc200000000000000000000000000000000000000000000000000000000004c4b40",
        "nonce": "0x2f",
        "chainId": "0x89"
      },
      "additionalContracts": [],
      "isFixedGasLimit": false
    },
    {
      "hash": "0xb21ca40672a21ae975d518f22bc193a6335001deac9cb7abcf513556700a1def",
      "transactionType": "CALL",
      "contractName": "ERC1967Proxy",
      "contractAddress": "0xabaabf95182937c379de2fc5689909e1f4c05bc2",
      "function": null,
      "arguments": null,
      "transaction": {
        "from": "0xa4563cc4619191be18c3a01cc50d37eb456d102a",
        "to": "0xabaabf95182937c379de2fc5689909e1f4c05bc2",
        "gas": "0x6d356",
        "value": "0x150703696a95864b",
        "input": "0x72f37f87000000000000000000000000000000000000000000000000000000000000002000000000000000000000000000000000000000000000000000000000000000800000000000000000000000000000000000000000000000000000000066a405ae000000000000000000000000000000000000000000000000000000000000000100000000000000000000000000000000000000000000000000000000004c4b40000000000000000000000000000000000000000000000000000000000000000c5465737420565320546573740000000000000000000000000000000000000000",
        "nonce": "0x30",
        "chainId": "0x89"
      },
      "additionalContracts": [],
      "isFixedGasLimit": false
    }
  ],
  "receipts": [
    {
      "status": "0x1",
      "cumulativeGasUsed": "0x73d288",
      "logs": [
        {
          "address": "0xc2132d05d31c914a87c6611c10748aeb04b58e8f",
          "topics": [
            "0x8c5be1e5ebec7d5bd14f71427d1e84f3dd0314c0f7b2291e5b200ac8c7c3b925",
            "0x000000000000000000000000a4563cc4619191be18c3a01cc50d37eb456d102a",
            "0x000000000000000000000000abaabf95182937c379de2fc5689909e1f4c05bc2"
          ],
          "data": "0x00000000000000000000000000000000000000000000000000000000004c4b40",
          "blockHash": "0x0ecad609251cf486cf9145d4e7606576204604e69a06dc22a09e1d6bb88f79a0",
          "blockNumber": "0x3912301",
          "transactionHash": "0x3c0992db2f45111825682a0cc08d3b28d05b0179fead77e5efa76ddc430b0e05",
          "transactionIndex": "0x3b",
          "logIndex": "0xd8",
          "removed": false
        },
        {
          "address": "0x0000000000000000000000000000000000001010",
          "topics": [
            "0x4dfe1bbbcf077ddc3e01291eea2d5c70c2b422b415d95645b9adcfd678cb1d63",
            "0x0000000000000000000000000000000000000000000000000000000000001010",
            "0x000000000000000000000000a4563cc4619191be18c3a01cc50d37eb456d102a",
            "0x000000000000000000000000fcccd43296d9c1601a904eca9b339d94a5e5e098"
          ],
          "data": "0x00000000000000000000000000000000000000000000000000058347f7641000000000000000000000000000000000000000000000000001973e0aae6ae824fd000000000000000000000000000000000000000000002d320112f45a7c814b6a00000000000000000000000000000000000000000000000197388766738414fd000000000000000000000000000000000000000000002d32011877a273e55b6a",
          "blockHash": "0x0ecad609251cf486cf9145d4e7606576204604e69a06dc22a09e1d6bb88f79a0",
          "blockNumber": "0x3912301",
          "transactionHash": "0x3c0992db2f45111825682a0cc08d3b28d05b0179fead77e5efa76ddc430b0e05",
          "transactionIndex": "0x3b",
          "logIndex": "0xd9",
          "removed": false
        }
      ],
      "logsBloom": "0x00000000000000000000000000000000000200000000000000000000000000000010000000000000000000000000000100008000000000002000000000200000000000000000000000000000000000800000000000000000000100000000000000000000000080000000000000000000000000000000000080000000400000000000000000080000000000000000000000000000000000000000000000000000220000000000000000000000000000800000000000000000000000000000004000000000400000000001000000000020400000000000000000100000000000000110000000000000000000000000000000000000000000000000000000100000",
      "type": "0x2",
      "transactionHash": "0x3c0992db2f45111825682a0cc08d3b28d05b0179fead77e5efa76ddc430b0e05",
      "transactionIndex": "0x3b",
      "blockHash": "0x0ecad609251cf486cf9145d4e7606576204604e69a06dc22a09e1d6bb88f79a0",
      "blockNumber": "0x3912301",
      "gasUsed": "0xca0c",
      "effectiveGasPrice": "0x6fc23ac1b",
      "from": "0xa4563cc4619191be18c3a01cc50d37eb456d102a",
      "to": "0xc2132d05d31c914a87c6611c10748aeb04b58e8f",
      "contractAddress": null
    },
    {
      "status": "0x1",
      "cumulativeGasUsed": "0x787d4b",
      "logs": [
        {
          "address": "0x0000000000000000000000000000000000001010",
          "topics": [
            "0xe6497e3ee548a3372136af2fcb0696db31fc6cf20260707645068bd3fe97f3c4",
            "0x0000000000000000000000000000000000000000000000000000000000001010",
            "0x000000000000000000000000a4563cc4619191be18c3a01cc50d37eb456d102a",
            "0x000000000000000000000000abaabf95182937c379de2fc5689909e1f4c05bc2"
          ],
          "data": "0x000000000000000000000000000000000000000000000000150703696a95864b0000000000000000000000000000000000000000000000019708da664ff6b3a700000000000000000000000000000000000000000000000000000000000000000000000000000000000000000000000000000000000000018201d6fce5612d5c000000000000000000000000000000000000000000000000150703696a95864b",
          "blockHash": "0x0ecad609251cf486cf9145d4e7606576204604e69a06dc22a09e1d6bb88f79a0",
          "blockNumber": "0x3912301",
          "transactionHash": "0xb21ca40672a21ae975d518f22bc193a6335001deac9cb7abcf513556700a1def",
          "transactionIndex": "0x3c",
          "logIndex": "0xda",
          "removed": false
        },
        {
          "address": "0xc2132d05d31c914a87c6611c10748aeb04b58e8f",
          "topics": [
            "0xddf252ad1be2c89b69c2b068fc378daa952ba7f163c4a11628f55a4df523b3ef",
            "0x000000000000000000000000a4563cc4619191be18c3a01cc50d37eb456d102a",
            "0x000000000000000000000000abaabf95182937c379de2fc5689909e1f4c05bc2"
          ],
          "data": "0x00000000000000000000000000000000000000000000000000000000004c4b40",
          "blockHash": "0x0ecad609251cf486cf9145d4e7606576204604e69a06dc22a09e1d6bb88f79a0",
          "blockNumber": "0x3912301",
          "transactionHash": "0xb21ca40672a21ae975d518f22bc193a6335001deac9cb7abcf513556700a1def",
          "transactionIndex": "0x3c",
          "logIndex": "0xdb",
          "removed": false
        },
        {
          "address": "0xc2132d05d31c914a87c6611c10748aeb04b58e8f",
          "topics": [
            "0x8c5be1e5ebec7d5bd14f71427d1e84f3dd0314c0f7b2291e5b200ac8c7c3b925",
            "0x000000000000000000000000a4563cc4619191be18c3a01cc50d37eb456d102a",
            "0x000000000000000000000000abaabf95182937c379de2fc5689909e1f4c05bc2"
          ],
          "data": "0x0000000000000000000000000000000000000000000000000000000000000000",
          "blockHash": "0x0ecad609251cf486cf9145d4e7606576204604e69a06dc22a09e1d6bb88f79a0",
          "blockNumber": "0x3912301",
          "transactionHash": "0xb21ca40672a21ae975d518f22bc193a6335001deac9cb7abcf513556700a1def",
          "transactionIndex": "0x3c",
          "logIndex": "0xdc",
          "removed": false
        },
        {
          "address": "0x0000000000000000000000000000000000001010",
          "topics": [
            "0xe6497e3ee548a3372136af2fcb0696db31fc6cf20260707645068bd3fe97f3c4",
            "0x0000000000000000000000000000000000000000000000000000000000001010",
            "0x000000000000000000000000abaabf95182937c379de2fc5689909e1f4c05bc2",
            "0x0000000000000000000000001a44076050125825900e736c501f859c50fe728c"
          ],
          "data": "0x000000000000000000000000000000000000000000000000150703696a95864b000000000000000000000000000000000000000000000000150703696a95864b00000000000000000000000000000000000000000000000000000000000000000000000000000000000000000000000000000000000000000000000000000000000000000000000000000000000000000000000000000000150703696a95864b",
          "blockHash": "0x0ecad609251cf486cf9145d4e7606576204604e69a06dc22a09e1d6bb88f79a0",
          "blockNumber": "0x3912301",
          "transactionHash": "0xb21ca40672a21ae975d518f22bc193a6335001deac9cb7abcf513556700a1def",
          "transactionIndex": "0x3c",
          "logIndex": "0xdd",
          "removed": false
        },
        {
          "address": "0x6c26c61a97006888ea9e4fa36584c7df57cd9da3",
          "topics": [
            "0x61ed099e74a97a1d7f8bb0952a88ca8b7b8ebd00c126ea04671f92a81213318a"
          ],
          "data": "0x000000000000000000000000cd3f213ad101472e1713c72b1697e727c803885b00000000000000000000000000000000000000000000000014e358b6da33ae03",
          "blockHash": "0x0ecad609251cf486cf9145d4e7606576204604e69a06dc22a09e1d6bb88f79a0",
          "blockNumber": "0x3912301",
          "transactionHash": "0xb21ca40672a21ae975d518f22bc193a6335001deac9cb7abcf513556700a1def",
          "transactionIndex": "0x3c",
          "logIndex": "0xde",
          "removed": false
        },
        {
          "address": "0x6c26c61a97006888ea9e4fa36584c7df57cd9da3",
          "topics": [
            "0x07ea52d82345d6e838192107d8fd7123d9c2ec8e916cd0aad13fd2b60db24644"
          ],
          "data": "0x000000000000000000000000000000000000000000000000000000000000006000000000000000000000000000000000000000000000000000000000000000c000000000000000000000000000000000000000000000000000000000000000e0000000000000000000000000000000000000000000000000000000000000000200000000000000000000000023de2fe932d9043291f870324b74f820e11dc81a000000000000000000000000d56e4eab23cb81f43168f9f45211eb027b9ac7cc000000000000000000000000000000000000000000000000000000000000000000000000000000000000000000000000000000000000000000000000000000020000000000000000000000000000000000000000000000000011d5594830ec240000000000000000000000000000000000000000000000000011d5594830ec24",
          "blockHash": "0x0ecad609251cf486cf9145d4e7606576204604e69a06dc22a09e1d6bb88f79a0",
          "blockNumber": "0x3912301",
          "transactionHash": "0xb21ca40672a21ae975d518f22bc193a6335001deac9cb7abcf513556700a1def",
          "transactionIndex": "0x3c",
          "logIndex": "0xdf",
          "removed": false
        },
        {
          "address": "0x1a44076050125825900e736c501f859c50fe728c",
          "topics": [
            "0x1ab700d4ced0c005b164c0f789fd09fcbb0156d4c2041b8a3bfbcd961cd1567f"
          ],
          "data": "0x000000000000000000000000000000000000000000000000000000000000006000000000000000000000000000000000000000000000000000000000000001c00000000000000000000000006c26c61a97006888ea9e4fa36584c7df57cd9da300000000000000000000000000000000000000000000000000000000000001310100000000000000060000759d000000000000000000000000abaabf95182937c379de2fc5689909e1f4c05bc2000075ae000000000000000000000000f0db811f8edffc9dbe0ef99fbbafaacf6df7e3f03e803cf8666ee1b364c3212b59a17e84a4860e61d10cdf884dfa113da6b5f06221e370ed00000000000000000000000000000000000000000000000000000000561c4a49fd6a898e0fd13bf679f506177b808fbb3b47fd242bb1fd8955f23e4b000000000000000000000000000000000000000000000000000000000000000100000000000000000000000000000000000000000000000000000000004c4b400000000000000000000000000000000000000000000000000000000000000089000000000000000000000000a4563cc4619191be18c3a01cc50d37eb456d102a00000000000000000000000000000000000000000000000000000000000000000000000000000000000000000000160003010011010000000000000000000000000007a12000000000000000000000",
          "blockHash": "0x0ecad609251cf486cf9145d4e7606576204604e69a06dc22a09e1d6bb88f79a0",
          "blockNumber": "0x3912301",
          "transactionHash": "0xb21ca40672a21ae975d518f22bc193a6335001deac9cb7abcf513556700a1def",
          "transactionIndex": "0x3c",
          "logIndex": "0xe0",
          "removed": false
        },
        {
          "address": "0x0000000000000000000000000000000000001010",
          "topics": [
            "0xe6497e3ee548a3372136af2fcb0696db31fc6cf20260707645068bd3fe97f3c4",
            "0x0000000000000000000000000000000000000000000000000000000000001010",
            "0x0000000000000000000000001a44076050125825900e736c501f859c50fe728c",
            "0x0000000000000000000000006c26c61a97006888ea9e4fa36584c7df57cd9da3"
          ],
          "data": "0x000000000000000000000000000000000000000000000000150703696a95864b000000000000000000000000000000000000000000000000150703696a95864b00000000000000000000000000000000000000000000039fab8759197e3822fd000000000000000000000000000000000000000000000000000000000000000000000000000000000000000000000000000000000000039fc08e5c82e8cda948",
          "blockHash": "0x0ecad609251cf486cf9145d4e7606576204604e69a06dc22a09e1d6bb88f79a0",
          "blockNumber": "0x3912301",
          "transactionHash": "0xb21ca40672a21ae975d518f22bc193a6335001deac9cb7abcf513556700a1def",
          "transactionIndex": "0x3c",
          "logIndex": "0xe1",
          "removed": false
        },
        {
          "address": "0x0000000000000000000000000000000000001010",
          "topics": [
            "0x4dfe1bbbcf077ddc3e01291eea2d5c70c2b422b415d95645b9adcfd678cb1d63",
            "0x0000000000000000000000000000000000000000000000000000000000001010",
            "0x000000000000000000000000a4563cc4619191be18c3a01cc50d37eb456d102a",
            "0x000000000000000000000000fcccd43296d9c1601a904eca9b339d94a5e5e098"
          ],
          "data": "0x000000000000000000000000000000000000000000000000002099506f64040000000000000000000000000000000000000000000000000197388766736ec5b9000000000000000000000000000000000000000000002d32011877a273e55b6a0000000000000000000000000000000000000000000000019717ee16040ac1b9000000000000000000000000000000000000000000002d32013910f2e3495f6a",
          "blockHash": "0x0ecad609251cf486cf9145d4e7606576204604e69a06dc22a09e1d6bb88f79a0",
          "blockNumber": "0x3912301",
          "transactionHash": "0xb21ca40672a21ae975d518f22bc193a6335001deac9cb7abcf513556700a1def",
          "transactionIndex": "0x3c",
          "logIndex": "0xe2",
          "removed": false
        }
      ],
      "logsBloom": "0x00000000000000000000008000000000000200000000000000000004001000000010004000000000000000100002000100008000000000002000000000200000000080000000000000000008000000800000000000000000000100000000000000000000000080008000000000000000000000000010000080200010400000000000000000080000000000080000000000000000000000000000010000000000220000008000000000100000000000800000000000400000000440000000004000000002400000000001000000000020400000000000801000188000000000000110040000000000000000000000002000000000010000000000000000100000",
      "type": "0x2",
      "transactionHash": "0xb21ca40672a21ae975d518f22bc193a6335001deac9cb7abcf513556700a1def",
      "transactionIndex": "0x3c",
      "blockHash": "0x0ecad609251cf486cf9145d4e7606576204604e69a06dc22a09e1d6bb88f79a0",
      "blockNumber": "0x3912301",
      "gasUsed": "0x4aac3",
      "effectiveGasPrice": "0x6fc23ac1b",
      "from": "0xa4563cc4619191be18c3a01cc50d37eb456d102a",
      "to": "0xabaabf95182937c379de2fc5689909e1f4c05bc2",
      "contractAddress": null
    }
  ],
  "libraries": [],
  "pending": [],
  "returns": {},
  "timestamp": 1722021904,
  "chain": 137,
  "commit": "a756be8"
}