{
  "transactions": [
    {
      "hash": "0xbd0f2f4b9be6153dbf2f9def2d34a9af09886682af23fc883c8fd2f18e2fb873",
      "transactionType": "CALL",
      "contractName": null,
      "contractAddress": "0xc2132d05d31c914a87c6611c10748aeb04b58e8f",
      "function": "approve(address,uint256)",
      "arguments": [
        "0xaBaAbF95182937c379de2Fc5689909e1F4C05BC2",
        "5000000"
      ],
      "transaction": {
        "from": "0xa4563cc4619191be18c3a01cc50d37eb456d102a",
        "to": "0xc2132d05d31c914a87c6611c10748aeb04b58e8f",
        "gas": "0x11712",
        "value": "0x0",
        "input": "0x095ea7b3000000000000000000000000abaabf95182937c379de2fc5689909e1f4c05bc200000000000000000000000000000000000000000000000000000000004c4b40",
        "nonce": "0x1e",
        "chainId": "0x89"
      },
      "additionalContracts": [],
      "isFixedGasLimit": false
    },
    {
      "hash": "0x43600f0ce70243b36d6c87e422d5252b2a9a86e719b279e8b506916fd8b9f1ed",
      "transactionType": "CALL",
      "contractName": "ERC1967Proxy",
      "contractAddress": "0xabaabf95182937c379de2fc5689909e1f4c05bc2",
      "function": null,
      "arguments": null,
      "transaction": {
        "from": "0xa4563cc4619191be18c3a01cc50d37eb456d102a",
        "to": "0xabaabf95182937c379de2fc5689909e1f4c05bc2",
        "gas": "0x6d356",
        "value": "0x14dca7cc53dee13d",
        "input": "0x72f37f87000000000000000000000000000000000000000000000000000000000000002000000000000000000000000000000000000000000000000000000000000000800000000000000000000000000000000000000000000000000000000066a2b3e4000000000000000000000000000000000000000000000000000000000000000100000000000000000000000000000000000000000000000000000000004c4b40000000000000000000000000000000000000000000000000000000000000000c5465737420565320546573740000000000000000000000000000000000000000",
        "nonce": "0x1f",
        "chainId": "0x89"
      },
      "additionalContracts": [],
      "isFixedGasLimit": false
    }
  ],
  "receipts": [
    {
      "status": "0x1",
      "cumulativeGasUsed": "0x538dbb",
      "logs": [
        {
          "address": "0xc2132d05d31c914a87c6611c10748aeb04b58e8f",
          "topics": [
            "0x8c5be1e5ebec7d5bd14f71427d1e84f3dd0314c0f7b2291e5b200ac8c7c3b925",
            "0x000000000000000000000000a4563cc4619191be18c3a01cc50d37eb456d102a",
            "0x000000000000000000000000abaabf95182937c379de2fc5689909e1f4c05bc2"
          ],
          "data": "0x00000000000000000000000000000000000000000000000000000000004c4b40",
          "blockHash": "0x7b5082d3c0d06bbd49a19842b0ef90c9bf9dbde7058815ba4bc8b3dcf3fbf843",
          "blockNumber": "0x390857e",
          "transactionHash": "0xbd0f2f4b9be6153dbf2f9def2d34a9af09886682af23fc883c8fd2f18e2fb873",
          "transactionIndex": "0x2e",
          "logIndex": "0xc3",
          "removed": false
        },
        {
          "address": "0x0000000000000000000000000000000000001010",
          "topics": [
            "0x4dfe1bbbcf077ddc3e01291eea2d5c70c2b422b415d95645b9adcfd678cb1d63",
            "0x0000000000000000000000000000000000000000000000000000000000001010",
            "0x000000000000000000000000a4563cc4619191be18c3a01cc50d37eb456d102a",
            "0x00000000000000000000000069f5c4d08f6bc8cd29fe5f004d46fb566270868d"
          ],
          "data": "0x00000000000000000000000000000000000000000000000000058347f76410000000000000000000000000000000000000000000000000003f3290b1c0b551f100000000000000000000000000000000000000000000002de61b65eb567d78c10000000000000000000000000000000000000000000000003f2d0d69c95141f100000000000000000000000000000000000000000000002de620e9334de188c1",
          "blockHash": "0x7b5082d3c0d06bbd49a19842b0ef90c9bf9dbde7058815ba4bc8b3dcf3fbf843",
          "blockNumber": "0x390857e",
          "transactionHash": "0xbd0f2f4b9be6153dbf2f9def2d34a9af09886682af23fc883c8fd2f18e2fb873",
          "transactionIndex": "0x2e",
          "logIndex": "0xc4",
          "removed": false
        }
      ],
      "logsBloom": "0x00000000000000000000000002000000000000000000000000000000000000000010000000000000200000000000000100008000000000002000000000200000000000000000000000000000000040800000000000000000000100000000000000000000000000000000000000000000000000000000000080000000400000000000000000080000000000000000000000000000000000000000000000000000220000000000000000000000000000800000000000000000000000000000004000000000400000000001000000000020400000000000000000100000000000000010000000000000000000000000000000000000000000000000000000100000",
      "type": "0x2",
      "transactionHash": "0xbd0f2f4b9be6153dbf2f9def2d34a9af09886682af23fc883c8fd2f18e2fb873",
      "transactionIndex": "0x2e",
      "blockHash": "0x7b5082d3c0d06bbd49a19842b0ef90c9bf9dbde7058815ba4bc8b3dcf3fbf843",
      "blockNumber": "0x390857e",
      "gasUsed": "0xca0c",
      "effectiveGasPrice": "0x6fc23ac19",
      "from": "0xa4563cc4619191be18c3a01cc50d37eb456d102a",
      "to": "0xc2132d05d31c914a87c6611c10748aeb04b58e8f",
      "contractAddress": null
    },
    {
      "status": "0x1",
      "cumulativeGasUsed": "0x58d580",
      "logs": [
        {
          "address": "0x0000000000000000000000000000000000001010",
          "topics": [
            "0xe6497e3ee548a3372136af2fcb0696db31fc6cf20260707645068bd3fe97f3c4",
            "0x0000000000000000000000000000000000000000000000000000000000001010",
            "0x000000000000000000000000a4563cc4619191be18c3a01cc50d37eb456d102a",
            "0x000000000000000000000000abaabf95182937c379de2fc5689909e1f4c05bc2"
          ],
          "data": "0x00000000000000000000000000000000000000000000000014dca7cc53dee13d0000000000000000000000000000000000000000000000003efd6069a5d31b5f00000000000000000000000000000000000000000000000000000000000000000000000000000000000000000000000000000000000000002a20b89d51f43a2200000000000000000000000000000000000000000000000014dca7cc53dee13d",
          "blockHash": "0x7b5082d3c0d06bbd49a19842b0ef90c9bf9dbde7058815ba4bc8b3dcf3fbf843",
          "blockNumber": "0x390857e",
          "transactionHash": "0x43600f0ce70243b36d6c87e422d5252b2a9a86e719b279e8b506916fd8b9f1ed",
          "transactionIndex": "0x30",
          "logIndex": "0xc7",
          "removed": false
        },
        {
          "address": "0xc2132d05d31c914a87c6611c10748aeb04b58e8f",
          "topics": [
            "0xddf252ad1be2c89b69c2b068fc378daa952ba7f163c4a11628f55a4df523b3ef",
            "0x000000000000000000000000a4563cc4619191be18c3a01cc50d37eb456d102a",
            "0x000000000000000000000000abaabf95182937c379de2fc5689909e1f4c05bc2"
          ],
          "data": "0x00000000000000000000000000000000000000000000000000000000004c4b40",
          "blockHash": "0x7b5082d3c0d06bbd49a19842b0ef90c9bf9dbde7058815ba4bc8b3dcf3fbf843",
          "blockNumber": "0x390857e",
          "transactionHash": "0x43600f0ce70243b36d6c87e422d5252b2a9a86e719b279e8b506916fd8b9f1ed",
          "transactionIndex": "0x30",
          "logIndex": "0xc8",
          "removed": false
        },
        {
          "address": "0xc2132d05d31c914a87c6611c10748aeb04b58e8f",
          "topics": [
            "0x8c5be1e5ebec7d5bd14f71427d1e84f3dd0314c0f7b2291e5b200ac8c7c3b925",
            "0x000000000000000000000000a4563cc4619191be18c3a01cc50d37eb456d102a",
            "0x000000000000000000000000abaabf95182937c379de2fc5689909e1f4c05bc2"
          ],
          "data": "0x0000000000000000000000000000000000000000000000000000000000000000",
          "blockHash": "0x7b5082d3c0d06bbd49a19842b0ef90c9bf9dbde7058815ba4bc8b3dcf3fbf843",
          "blockNumber": "0x390857e",
          "transactionHash": "0x43600f0ce70243b36d6c87e422d5252b2a9a86e719b279e8b506916fd8b9f1ed",
          "transactionIndex": "0x30",
          "logIndex": "0xc9",
          "removed": false
        },
        {
          "address": "0x0000000000000000000000000000000000001010",
          "topics": [
            "0xe6497e3ee548a3372136af2fcb0696db31fc6cf20260707645068bd3fe97f3c4",
            "0x0000000000000000000000000000000000000000000000000000000000001010",
            "0x000000000000000000000000abaabf95182937c379de2fc5689909e1f4c05bc2",
            "0x0000000000000000000000001a44076050125825900e736c501f859c50fe728c"
          ],
          "data": "0x00000000000000000000000000000000000000000000000014dca7cc53dee13d00000000000000000000000000000000000000000000000014dca7cc53dee13d0000000000000000000000000000000000000000000000000000000000000000000000000000000000000000000000000000000000000000000000000000000000000000000000000000000000000000000000000000000014dca7cc53dee13d",
          "blockHash": "0x7b5082d3c0d06bbd49a19842b0ef90c9bf9dbde7058815ba4bc8b3dcf3fbf843",
          "blockNumber": "0x390857e",
          "transactionHash": "0x43600f0ce70243b36d6c87e422d5252b2a9a86e719b279e8b506916fd8b9f1ed",
          "transactionIndex": "0x30",
          "logIndex": "0xca",
          "removed": false
        },
        {
          "address": "0x6c26c61a97006888ea9e4fa36584c7df57cd9da3",
          "topics": [
            "0x61ed099e74a97a1d7f8bb0952a88ca8b7b8ebd00c126ea04671f92a81213318a"
          ],
          "data": "0x000000000000000000000000cd3f213ad101472e1713c72b1697e727c803885b00000000000000000000000000000000000000000000000014b8fd19c37d08f5",
          "blockHash": "0x7b5082d3c0d06bbd49a19842b0ef90c9bf9dbde7058815ba4bc8b3dcf3fbf843",
          "blockNumber": "0x390857e",
          "transactionHash": "0x43600f0ce70243b36d6c87e422d5252b2a9a86e719b279e8b506916fd8b9f1ed",
          "transactionIndex": "0x30",
          "logIndex": "0xcb",
          "removed": false
        },
        {
          "address": "0x6c26c61a97006888ea9e4fa36584c7df57cd9da3",
          "topics": [
            "0x07ea52d82345d6e838192107d8fd7123d9c2ec8e916cd0aad13fd2b60db24644"
          ],
          "data": "0x000000000000000000000000000000000000000000000000000000000000006000000000000000000000000000000000000000000000000000000000000000c000000000000000000000000000000000000000000000000000000000000000e0000000000000000000000000000000000000000000000000000000000000000200000000000000000000000023de2fe932d9043291f870324b74f820e11dc81a000000000000000000000000d56e4eab23cb81f43168f9f45211eb027b9ac7cc000000000000000000000000000000000000000000000000000000000000000000000000000000000000000000000000000000000000000000000000000000020000000000000000000000000000000000000000000000000011d5594830ec240000000000000000000000000000000000000000000000000011d5594830ec24",
          "blockHash": "0x7b5082d3c0d06bbd49a19842b0ef90c9bf9dbde7058815ba4bc8b3dcf3fbf843",
          "blockNumber": "0x390857e",
          "transactionHash": "0x43600f0ce70243b36d6c87e422d5252b2a9a86e719b279e8b506916fd8b9f1ed",
          "transactionIndex": "0x30",
          "logIndex": "0xcc",
          "removed": false
        },
        {
          "address": "0x1a44076050125825900e736c501f859c50fe728c",
          "topics": [
            "0x1ab700d4ced0c005b164c0f789fd09fcbb0156d4c2041b8a3bfbcd961cd1567f"
          ],
          "data": "0x000000000000000000000000000000000000000000000000000000000000006000000000000000000000000000000000000000000000000000000000000001c00000000000000000000000006c26c61a97006888ea9e4fa36584c7df57cd9da300000000000000000000000000000000000000000000000000000000000001310100000000000000040000759d000000000000000000000000abaabf95182937c379de2fc5689909e1f4c05bc2000075ae000000000000000000000000f0db811f8edffc9dbe0ef99fbbafaacf6df7e3f0a6123100ffe8b9d53ff2faa5956f4e0f28523f32038ce3614aab2d20acae0f6221e370ed00000000000000000000000000000000000000000000000000000000727ece7940e80fc62690d1023f857de4e2af76d79a2477a9442e5877902b68c6000000000000000000000000000000000000000000000000000000000000000100000000000000000000000000000000000000000000000000000000004c4b400000000000000000000000000000000000000000000000000000000000000089000000000000000000000000a4563cc4619191be18c3a01cc50d37eb456d102a00000000000000000000000000000000000000000000000000000000000000000000000000000000000000000000160003010011010000000000000000000000000003ebe800000000000000000000",
          "blockHash": "0x7b5082d3c0d06bbd49a19842b0ef90c9bf9dbde7058815ba4bc8b3dcf3fbf843",
          "blockNumber": "0x390857e",
          "transactionHash": "0x43600f0ce70243b36d6c87e422d5252b2a9a86e719b279e8b506916fd8b9f1ed",
          "transactionIndex": "0x30",
          "logIndex": "0xcd",
          "removed": false
        },
        {
          "address": "0x0000000000000000000000000000000000001010",
          "topics": [
            "0xe6497e3ee548a3372136af2fcb0696db31fc6cf20260707645068bd3fe97f3c4",
            "0x0000000000000000000000000000000000000000000000000000000000001010",
            "0x0000000000000000000000001a44076050125825900e736c501f859c50fe728c",
            "0x0000000000000000000000006c26c61a97006888ea9e4fa36584c7df57cd9da3"
          ],
          "data": "0x00000000000000000000000000000000000000000000000014dca7cc53dee13d00000000000000000000000000000000000000000000000014dca7cc53dee13d00000000000000000000000000000000000000000000038faae00e1e76f78a15000000000000000000000000000000000000000000000000000000000000000000000000000000000000000000000000000000000000038fbfbcb5eacad66b52",
          "blockHash": "0x7b5082d3c0d06bbd49a19842b0ef90c9bf9dbde7058815ba4bc8b3dcf3fbf843",
          "blockNumber": "0x390857e",
          "transactionHash": "0x43600f0ce70243b36d6c87e422d5252b2a9a86e719b279e8b506916fd8b9f1ed",
          "transactionIndex": "0x30",
          "logIndex": "0xce",
          "removed": false
        },
        {
          "address": "0x0000000000000000000000000000000000001010",
          "topics": [
            "0x4dfe1bbbcf077ddc3e01291eea2d5c70c2b422b415d95645b9adcfd678cb1d63",
            "0x0000000000000000000000000000000000000000000000000000000000001010",
            "0x000000000000000000000000a4563cc4619191be18c3a01cc50d37eb456d102a",
            "0x00000000000000000000000069f5c4d08f6bc8cd29fe5f004d46fb566270868d"
          ],
          "data": "0x000000000000000000000000000000000000000000000000002099506f6404000000000000000000000000000000000000000000000000003f2d0d69c93d86c500000000000000000000000000000000000000000000002de62531e326a4e0c10000000000000000000000000000000000000000000000003f0c741959d982c500000000000000000000000000000000000000000000002de645cb339608e4c1",
          "blockHash": "0x7b5082d3c0d06bbd49a19842b0ef90c9bf9dbde7058815ba4bc8b3dcf3fbf843",
          "blockNumber": "0x390857e",
          "transactionHash": "0x43600f0ce70243b36d6c87e422d5252b2a9a86e719b279e8b506916fd8b9f1ed",
          "transactionIndex": "0x30",
          "logIndex": "0xcf",
          "removed": false
        }
      ],
      "logsBloom": "0x00000000000000000000008002000000000000000000000000000004001000000010004000000000200000100002000100008000000000002000000000200000000080000000000000000008000040800000000000000000000100000000000000000000000000008000000000000000000000000010000080200010400000000000000000080000000000080000000000000000000000000000010000000000220000008000000000100000000000800000000000400000000440000000004000000002400000000001000000000020400000000000801000188000000000000010040000000000000000000000002000000000010000000000000000100000",
      "type": "0x2",
      "transactionHash": "0x43600f0ce70243b36d6c87e422d5252b2a9a86e719b279e8b506916fd8b9f1ed",
      "transactionIndex": "0x30",
      "blockHash": "0x7b5082d3c0d06bbd49a19842b0ef90c9bf9dbde7058815ba4bc8b3dcf3fbf843",
      "blockNumber": "0x390857e",
      "gasUsed": "0x4aac3",
      "effectiveGasPrice": "0x6fc23ac19",
      "from": "0xa4563cc4619191be18c3a01cc50d37eb456d102a",
      "to": "0xabaabf95182937c379de2fc5689909e1f4c05bc2",
      "contractAddress": null
    }
  ],
  "libraries": [],
  "pending": [],
  "returns": {},
  "timestamp": 1721935721,
  "chain": 137,
  "commit": "a756be8"
}