{
  "transactions": [
    {
      "hash": "0x2f86f33059b86235388000ee2a17df572fb6ec6acb06bbdac8ba3668a3bf7a3b",
      "transactionType": "CALL",
      "contractName": null,
      "contractAddress": "0xc2132d05d31c914a87c6611c10748aeb04b58e8f",
      "function": "approve(address,uint256)",
      "arguments": [
        "0xaBaAbF95182937c379de2Fc5689909e1F4C05BC2",
        "1000"
      ],
      "transaction": {
        "from": "0xa4563cc4619191be18c3a01cc50d37eb456d102a",
        "to": "0xc2132d05d31c914a87c6611c10748aeb04b58e8f",
        "gas": "0x11703",
        "value": "0x0",
        "input": "0x095ea7b3000000000000000000000000abaabf95182937c379de2fc5689909e1f4c05bc200000000000000000000000000000000000000000000000000000000000003e8",
        "nonce": "0x11",
        "chainId": "0x89"
      },
      "additionalContracts": [],
      "isFixedGasLimit": false
    },
    {
      "hash": "0x569f215d829fbfde16de13720391b18f73d3cd41c27b744321be3f4397520c7f",
      "transactionType": "CALL",
      "contractName": "ERC1967Proxy",
      "contractAddress": "0xabaabf95182937c379de2fc5689909e1f4c05bc2",
      "function": null,
      "arguments": null,
      "transaction": {
        "from": "0xa4563cc4619191be18c3a01cc50d37eb456d102a",
        "to": "0xabaabf95182937c379de2fc5689909e1f4c05bc2",
        "gas": "0x734f5",
        "value": "0x150703696a95864b",
        "input": "0x72f37f87000000000000000000000000000000000000000000000000000000000000002000000000000000000000000000000000000000000000000000000000000000800000000000000000000000000000000000000000000000000000000066a280f3000000000000000000000000000000000000000000000000000000000000000100000000000000000000000000000000000000000000000000000000000003e8000000000000000000000000000000000000000000000000000000000000000c5465737420565320546573740000000000000000000000000000000000000000",
        "nonce": "0x12",
        "chainId": "0x89"
      },
      "additionalContracts": [],
      "isFixedGasLimit": false
    }
  ],
  "receipts": [
    {
      "status": "0x1",
      "cumulativeGasUsed": "0x4e4a18",
      "logs": [
        {
          "address": "0xc2132d05d31c914a87c6611c10748aeb04b58e8f",
          "topics": [
            "0x8c5be1e5ebec7d5bd14f71427d1e84f3dd0314c0f7b2291e5b200ac8c7c3b925",
            "0x000000000000000000000000a4563cc4619191be18c3a01cc50d37eb456d102a",
            "0x000000000000000000000000abaabf95182937c379de2fc5689909e1f4c05bc2"
          ],
          "data": "0x00000000000000000000000000000000000000000000000000000000000003e8",
          "blockHash": "0x52a6d03287223b49433f7dbc0680b8b96ff26de459d8a55ca94c5e1eb1f64878",
          "blockNumber": "0x38fdc7c",
          "transactionHash": "0x2f86f33059b86235388000ee2a17df572fb6ec6acb06bbdac8ba3668a3bf7a3b",
          "transactionIndex": "0x25",
          "logIndex": "0xbf",
          "removed": false
        },
        {
          "address": "0x0000000000000000000000000000000000001010",
          "topics": [
            "0x4dfe1bbbcf077ddc3e01291eea2d5c70c2b422b415d95645b9adcfd678cb1d63",
            "0x0000000000000000000000000000000000000000000000000000000000001010",
            "0x000000000000000000000000a4563cc4619191be18c3a01cc50d37eb456d102a",
            "0x000000000000000000000000eedba2484aaf940f37cd3cd21a5d7c4a7dafbfc0"
          ],
          "data": "0x000000000000000000000000000000000000000000000000000582f425b8ca00000000000000000000000000000000000000000000000000ef57a9ee65a233fb00000000000000000000000000000000000000000001476ce21f6cc56c3493fc000000000000000000000000000000000000000000000000ef5226fa3fe969fb00000000000000000000000000000000000000000001476ce224efb991ed5dfc",
          "blockHash": "0x52a6d03287223b49433f7dbc0680b8b96ff26de459d8a55ca94c5e1eb1f64878",
          "blockNumber": "0x38fdc7c",
          "transactionHash": "0x2f86f33059b86235388000ee2a17df572fb6ec6acb06bbdac8ba3668a3bf7a3b",
          "transactionIndex": "0x25",
          "logIndex": "0xc0",
          "removed": false
        }
      ],
      "logsBloom": "0x00000000000000000000000000000000000000000000000000000000000000000010000000000000000000000000000100008000000000002000000000200000000000000000000000000000000000800000000000000000000100000000000000000000000000000000000000000000000000000100000080000000400000000000004000080000000000000000000000000000000000000000000000000000220000000000000000000000000000800000000000000000000020000000004000000000400000000001000000000020400000000000000000100000000000000010000000000000000000000000000000000000000000000000000000100000",
      "type": "0x2",
      "transactionHash": "0x2f86f33059b86235388000ee2a17df572fb6ec6acb06bbdac8ba3668a3bf7a3b",
      "transactionIndex": "0x25",
      "blockHash": "0x52a6d03287223b49433f7dbc0680b8b96ff26de459d8a55ca94c5e1eb1f64878",
      "blockNumber": "0x38fdc7c",
      "gasUsed": "0xca00",
      "effectiveGasPrice": "0x6fc23ac25",
      "from": "0xa4563cc4619191be18c3a01cc50d37eb456d102a",
      "to": "0xc2132d05d31c914a87c6611c10748aeb04b58e8f",
      "contractAddress": null
    },
    {
      "status": "0x1",
      "cumulativeGasUsed": "0x53379b",
      "logs": [
        {
          "address": "0x0000000000000000000000000000000000001010",
          "topics": [
            "0xe6497e3ee548a3372136af2fcb0696db31fc6cf20260707645068bd3fe97f3c4",
            "0x0000000000000000000000000000000000000000000000000000000000001010",
            "0x000000000000000000000000a4563cc4619191be18c3a01cc50d37eb456d102a",
            "0x000000000000000000000000abaabf95182937c379de2fc5689909e1f4c05bc2"
          ],
          "data": "0x000000000000000000000000000000000000000000000000150703696a95864b000000000000000000000000000000000000000000000000ef1fd019fdaebe920000000000000000000000000000000000000000000000000000000000000000000000000000000000000000000000000000000000000000da18ccb093193847000000000000000000000000000000000000000000000000150703696a95864b",
          "blockHash": "0x52a6d03287223b49433f7dbc0680b8b96ff26de459d8a55ca94c5e1eb1f64878",
          "blockNumber": "0x38fdc7c",
          "transactionHash": "0x569f215d829fbfde16de13720391b18f73d3cd41c27b744321be3f4397520c7f",
          "transactionIndex": "0x26",
          "logIndex": "0xc1",
          "removed": false
        },
        {
          "address": "0xc2132d05d31c914a87c6611c10748aeb04b58e8f",
          "topics": [
            "0xddf252ad1be2c89b69c2b068fc378daa952ba7f163c4a11628f55a4df523b3ef",
            "0x000000000000000000000000a4563cc4619191be18c3a01cc50d37eb456d102a",
            "0x000000000000000000000000abaabf95182937c379de2fc5689909e1f4c05bc2"
          ],
          "data": "0x00000000000000000000000000000000000000000000000000000000000003e8",
          "blockHash": "0x52a6d03287223b49433f7dbc0680b8b96ff26de459d8a55ca94c5e1eb1f64878",
          "blockNumber": "0x38fdc7c",
          "transactionHash": "0x569f215d829fbfde16de13720391b18f73d3cd41c27b744321be3f4397520c7f",
          "transactionIndex": "0x26",
          "logIndex": "0xc2",
          "removed": false
        },
        {
          "address": "0xc2132d05d31c914a87c6611c10748aeb04b58e8f",
          "topics": [
            "0x8c5be1e5ebec7d5bd14f71427d1e84f3dd0314c0f7b2291e5b200ac8c7c3b925",
            "0x000000000000000000000000a4563cc4619191be18c3a01cc50d37eb456d102a",
            "0x000000000000000000000000abaabf95182937c379de2fc5689909e1f4c05bc2"
          ],
          "data": "0x0000000000000000000000000000000000000000000000000000000000000000",
          "blockHash": "0x52a6d03287223b49433f7dbc0680b8b96ff26de459d8a55ca94c5e1eb1f64878",
          "blockNumber": "0x38fdc7c",
          "transactionHash": "0x569f215d829fbfde16de13720391b18f73d3cd41c27b744321be3f4397520c7f",
          "transactionIndex": "0x26",
          "logIndex": "0xc3",
          "removed": false
        },
        {
          "address": "0x0000000000000000000000000000000000001010",
          "topics": [
            "0xe6497e3ee548a3372136af2fcb0696db31fc6cf20260707645068bd3fe97f3c4",
            "0x0000000000000000000000000000000000000000000000000000000000001010",
            "0x000000000000000000000000abaabf95182937c379de2fc5689909e1f4c05bc2",
            "0x0000000000000000000000001a44076050125825900e736c501f859c50fe728c"
          ],
          "data": "0x000000000000000000000000000000000000000000000000150703696a95864b000000000000000000000000000000000000000000000000150703696a95864b00000000000000000000000000000000000000000000000000000000000000000000000000000000000000000000000000000000000000000000000000000000000000000000000000000000000000000000000000000000150703696a95864b",
          "blockHash": "0x52a6d03287223b49433f7dbc0680b8b96ff26de459d8a55ca94c5e1eb1f64878",
          "blockNumber": "0x38fdc7c",
          "transactionHash": "0x569f215d829fbfde16de13720391b18f73d3cd41c27b744321be3f4397520c7f",
          "transactionIndex": "0x26",
          "logIndex": "0xc4",
          "removed": false
        },
        {
          "address": "0x6c26c61a97006888ea9e4fa36584c7df57cd9da3",
          "topics": [
            "0x61ed099e74a97a1d7f8bb0952a88ca8b7b8ebd00c126ea04671f92a81213318a"
          ],
          "data": "0x000000000000000000000000cd3f213ad101472e1713c72b1697e727c803885b00000000000000000000000000000000000000000000000014e358b6da33ae03",
          "blockHash": "0x52a6d03287223b49433f7dbc0680b8b96ff26de459d8a55ca94c5e1eb1f64878",
          "blockNumber": "0x38fdc7c",
          "transactionHash": "0x569f215d829fbfde16de13720391b18f73d3cd41c27b744321be3f4397520c7f",
          "transactionIndex": "0x26",
          "logIndex": "0xc5",
          "removed": false
        },
        {
          "address": "0x6c26c61a97006888ea9e4fa36584c7df57cd9da3",
          "topics": [
            "0x07ea52d82345d6e838192107d8fd7123d9c2ec8e916cd0aad13fd2b60db24644"
          ],
          "data": "0x000000000000000000000000000000000000000000000000000000000000006000000000000000000000000000000000000000000000000000000000000000c000000000000000000000000000000000000000000000000000000000000000e0000000000000000000000000000000000000000000000000000000000000000200000000000000000000000023de2fe932d9043291f870324b74f820e11dc81a000000000000000000000000d56e4eab23cb81f43168f9f45211eb027b9ac7cc000000000000000000000000000000000000000000000000000000000000000000000000000000000000000000000000000000000000000000000000000000020000000000000000000000000000000000000000000000000011d5594830ec240000000000000000000000000000000000000000000000000011d5594830ec24",
          "blockHash": "0x52a6d03287223b49433f7dbc0680b8b96ff26de459d8a55ca94c5e1eb1f64878",
          "blockNumber": "0x38fdc7c",
          "transactionHash": "0x569f215d829fbfde16de13720391b18f73d3cd41c27b744321be3f4397520c7f",
          "transactionIndex": "0x26",
          "logIndex": "0xc6",
          "removed": false
        },
        {
          "address": "0x1a44076050125825900e736c501f859c50fe728c",
          "topics": [
            "0x1ab700d4ced0c005b164c0f789fd09fcbb0156d4c2041b8a3bfbcd961cd1567f"
          ],
          "data": "0x000000000000000000000000000000000000000000000000000000000000006000000000000000000000000000000000000000000000000000000000000001c00000000000000000000000006c26c61a97006888ea9e4fa36584c7df57cd9da300000000000000000000000000000000000000000000000000000000000001310100000000000000020000759d000000000000000000000000abaabf95182937c379de2fc5689909e1f4c05bc2000075ae000000000000000000000000f0db811f8edffc9dbe0ef99fbbafaacf6df7e3f054ad659fe7a9fa9721d9ba4292a88bf07ca8ed96b16518690943b63f36c9aa9b21e370ed00000000000000000000000000000000000000000000000000000000dc126fd778cf975c9ab6d568d5db34259f1ad5ea699e8fe483ba391b353a19c1000000000000000000000000000000000000000000000000000000000000000100000000000000000000000000000000000000000000000000000000000003e80000000000000000000000000000000000000000000000000000000000000089000000000000000000000000a4563cc4619191be18c3a01cc50d37eb456d102a00000000000000000000000000000000000000000000000000000000000000000000000000000000000000000000160003010011010000000000000000000000000007a12000000000000000000000",
          "blockHash": "0x52a6d03287223b49433f7dbc0680b8b96ff26de459d8a55ca94c5e1eb1f64878",
          "blockNumber": "0x38fdc7c",
          "transactionHash": "0x569f215d829fbfde16de13720391b18f73d3cd41c27b744321be3f4397520c7f",
          "transactionIndex": "0x26",
          "logIndex": "0xc7",
          "removed": false
        },
        {
          "address": "0x0000000000000000000000000000000000001010",
          "topics": [
            "0xe6497e3ee548a3372136af2fcb0696db31fc6cf20260707645068bd3fe97f3c4",
            "0x0000000000000000000000000000000000000000000000000000000000001010",
            "0x0000000000000000000000001a44076050125825900e736c501f859c50fe728c",
            "0x0000000000000000000000006c26c61a97006888ea9e4fa36584c7df57cd9da3"
          ],
          "data": "0x000000000000000000000000000000000000000000000000150703696a95864b000000000000000000000000000000000000000000000000150703696a95864b000000000000000000000000000000000000000000000384aa0e8bf8ff32b4600000000000000000000000000000000000000000000000000000000000000000000000000000000000000000000000000000000000000384bf158f6269c83aab",
          "blockHash": "0x52a6d03287223b49433f7dbc0680b8b96ff26de459d8a55ca94c5e1eb1f64878",
          "blockNumber": "0x38fdc7c",
          "transactionHash": "0x569f215d829fbfde16de13720391b18f73d3cd41c27b744321be3f4397520c7f",
          "transactionIndex": "0x26",
          "logIndex": "0xc8",
          "removed": false
        },
        {
          "address": "0x0000000000000000000000000000000000001010",
          "topics": [
            "0x4dfe1bbbcf077ddc3e01291eea2d5c70c2b422b415d95645b9adcfd678cb1d63",
            "0x0000000000000000000000000000000000000000000000000000000000001010",
            "0x000000000000000000000000a4563cc4619191be18c3a01cc50d37eb456d102a",
            "0x000000000000000000000000eedba2484aaf940f37cd3cd21a5d7c4a7dafbfc0"
          ],
          "data": "0x00000000000000000000000000000000000000000000000000226b8ebc81f183000000000000000000000000000000000000000000000000ef5226fa3fcd01fb00000000000000000000000000000000000000000001476ce224efb991ed5dfc000000000000000000000000000000000000000000000000ef2fbb6b834b107800000000000000000000000000000000000000000001476ce2475b484e6f4f7f",
          "blockHash": "0x52a6d03287223b49433f7dbc0680b8b96ff26de459d8a55ca94c5e1eb1f64878",
          "blockNumber": "0x38fdc7c",
          "transactionHash": "0x569f215d829fbfde16de13720391b18f73d3cd41c27b744321be3f4397520c7f",
          "transactionIndex": "0x26",
          "logIndex": "0xc9",
          "removed": false
        }
      ],
      "logsBloom": "0x00000000000000000000008000000000000000000000000000000004001000000010004000000000000000100002000100008000000000002000000000200000000080000000000000000008000000800000000000000000000100000000000000000000000000008000000000000000000000000110000080200010400000000000004000080000000000080000000000000000000000000000010000000000220000008000000000100000000000800000000000400000000460000000004000000002400000000001000000000020400000000000801000188000000000000010040000000000000000000000002000000000010000000000000000100000",
      "type": "0x2",
      "transactionHash": "0x569f215d829fbfde16de13720391b18f73d3cd41c27b744321be3f4397520c7f",
      "transactionIndex": "0x26",
      "blockHash": "0x52a6d03287223b49433f7dbc0680b8b96ff26de459d8a55ca94c5e1eb1f64878",
      "blockNumber": "0x38fdc7c",
      "gasUsed": "0x4ed83",
      "effectiveGasPrice": "0x6fc23ac25",
      "from": "0xa4563cc4619191be18c3a01cc50d37eb456d102a",
      "to": "0xabaabf95182937c379de2fc5689909e1f4c05bc2",
      "contractAddress": null
    }
  ],
  "libraries": [],
  "pending": [],
  "returns": {},
  "timestamp": 1721842818,
  "chain": 137,
  "commit": "a756be8"
}