{
  "transactions": [
    {
      "hash": "0x6b0e6a5a5f3c15237812563fb904c82ba5f634f8869ee3a27b4752f489a4a7c9",
      "transactionType": "CALL",
      "contractName": null,
      "contractAddress": "0xc2132d05d31c914a87c6611c10748aeb04b58e8f",
      "function": "approve(address,uint256)",
      "arguments": [
        "0xaBaAbF95182937c379de2Fc5689909e1F4C05BC2",
        "5000000"
      ],
      "transaction": {
        "from": "0xa4563cc4619191be18c3a01cc50d37eb456d102a",
        "to": "0xc2132d05d31c914a87c6611c10748aeb04b58e8f",
        "gas": "0x11712",
        "value": "0x0",
        "input": "0x095ea7b3000000000000000000000000abaabf95182937c379de2fc5689909e1f4c05bc200000000000000000000000000000000000000000000000000000000004c4b40",
        "nonce": "0x38",
        "chainId": "0x89"
      },
      "additionalContracts": [],
      "isFixedGasLimit": false
    },
    {
      "hash": "0x16b97d5acc3c175e0b9b339e29036705f5adc7fe91379244634bce119bb5be31",
      "transactionType": "CALL",
      "contractName": "ERC1967Proxy",
      "contractAddress": "0xabaabf95182937c379de2fc5689909e1f4c05bc2",
      "function": null,
      "arguments": null,
      "transaction": {
        "from": "0xa4563cc4619191be18c3a01cc50d37eb456d102a",
        "to": "0xabaabf95182937c379de2fc5689909e1f4c05bc2",
        "gas": "0x6d356",
        "value": "0x150703696a95864b",
        "input": "0x72f37f87000000000000000000000000000000000000000000000000000000000000002000000000000000000000000000000000000000000000000000000000000000800000000000000000000000000000000000000000000000000000000066a5515f000000000000000000000000000000000000000000000000000000000000000100000000000000000000000000000000000000000000000000000000004c4b40000000000000000000000000000000000000000000000000000000000000000c5465737420565320546573740000000000000000000000000000000000000000",
        "nonce": "0x39",
        "chainId": "0x89"
      },
      "additionalContracts": [],
      "isFixedGasLimit": false
    }
  ],
  "receipts": [
    {
      "status": "0x1",
      "cumulativeGasUsed": "0x71d450",
      "logs": [
        {
          "address": "0xc2132d05d31c914a87c6611c10748aeb04b58e8f",
          "topics": [
            "0x8c5be1e5ebec7d5bd14f71427d1e84f3dd0314c0f7b2291e5b200ac8c7c3b925",
            "0x000000000000000000000000a4563cc4619191be18c3a01cc50d37eb456d102a",
            "0x000000000000000000000000abaabf95182937c379de2fc5689909e1f4c05bc2"
          ],
          "data": "0x00000000000000000000000000000000000000000000000000000000004c4b40",
          "blockHash": "0xb00947a2e778bcd76fbb70f54334651e1472bd7f0baba1b026ce59a6eed46b94",
          "blockNumber": "0x391b783",
          "transactionHash": "0x6b0e6a5a5f3c15237812563fb904c82ba5f634f8869ee3a27b4752f489a4a7c9",
          "transactionIndex": "0x31",
          "logIndex": "0xa9",
          "removed": false
        },
        {
          "address": "0x0000000000000000000000000000000000001010",
          "topics": [
            "0x4dfe1bbbcf077ddc3e01291eea2d5c70c2b422b415d95645b9adcfd678cb1d63",
            "0x0000000000000000000000000000000000000000000000000000000000001010",
            "0x000000000000000000000000a4563cc4619191be18c3a01cc50d37eb456d102a",
            "0x000000000000000000000000b95d435df3f8b2a8d8b9c2b7c8766c9ae6ed8cc9"
          ],
          "data": "0x00000000000000000000000000000000000000000000000000058347f76410000000000000000000000000000000000000000000000000016b38b400c0dd6c27000000000000000000000000000000000000000000000006a698981171503f650000000000000000000000000000000000000000000000016b3330b8c9795c27000000000000000000000000000000000000000000000006a69e1b5968b44f65",
          "blockHash": "0xb00947a2e778bcd76fbb70f54334651e1472bd7f0baba1b026ce59a6eed46b94",
          "blockNumber": "0x391b783",
          "transactionHash": "0x6b0e6a5a5f3c15237812563fb904c82ba5f634f8869ee3a27b4752f489a4a7c9",
          "transactionIndex": "0x31",
          "logIndex": "0xaa",
          "removed": false
        }
      ],
      "logsBloom": "0x00000000000000000000000000000000000000000000000000000000000000000010000000000000000000000000000100008000000000002000000000200000800000000000000000000000000000800000000000000000000100000000000100000000000000000000000000000000000000000000000080000000400000000000000000080000000000000000000000000000000000000000000000000000220000000000000000000000000000800000000000000000000000000000004000000000400000040001000000000020400000000000000000100000000000000010000000000000000000000000000000000000000000000000000000100000",
      "type": "0x2",
      "transactionHash": "0x6b0e6a5a5f3c15237812563fb904c82ba5f634f8869ee3a27b4752f489a4a7c9",
      "transactionIndex": "0x31",
      "blockHash": "0xb00947a2e778bcd76fbb70f54334651e1472bd7f0baba1b026ce59a6eed46b94",
      "blockNumber": "0x391b783",
      "gasUsed": "0xca0c",
      "effectiveGasPrice": "0x6fc23ac18",
      "from": "0xa4563cc4619191be18c3a01cc50d37eb456d102a",
      "to": "0xc2132d05d31c914a87c6611c10748aeb04b58e8f",
      "contractAddress": null
    },
    {
      "status": "0x1",
      "cumulativeGasUsed": "0x767f13",
      "logs": [
        {
          "address": "0x0000000000000000000000000000000000001010",
          "topics": [
            "0xe6497e3ee548a3372136af2fcb0696db31fc6cf20260707645068bd3fe97f3c4",
            "0x0000000000000000000000000000000000000000000000000000000000001010",
            "0x000000000000000000000000a4563cc4619191be18c3a01cc50d37eb456d102a",
            "0x000000000000000000000000abaabf95182937c379de2fc5689909e1f4c05bc2"
          ],
          "data": "0x000000000000000000000000000000000000000000000000150703696a95864b0000000000000000000000000000000000000000000000016b0383b8a602d2f7000000000000000000000000000000000000000000000000000000000000000000000000000000000000000000000000000000000000000155fc804f3b6d4cac000000000000000000000000000000000000000000000000150703696a95864b",
          "blockHash": "0xb00947a2e778bcd76fbb70f54334651e1472bd7f0baba1b026ce59a6eed46b94",
          "blockNumber": "0x391b783",
          "transactionHash": "0x16b97d5acc3c175e0b9b339e29036705f5adc7fe91379244634bce119bb5be31",
          "transactionIndex": "0x32",
          "logIndex": "0xab",
          "removed": false
        },
        {
          "address": "0xc2132d05d31c914a87c6611c10748aeb04b58e8f",
          "topics": [
            "0xddf252ad1be2c89b69c2b068fc378daa952ba7f163c4a11628f55a4df523b3ef",
            "0x000000000000000000000000a4563cc4619191be18c3a01cc50d37eb456d102a",
            "0x000000000000000000000000abaabf95182937c379de2fc5689909e1f4c05bc2"
          ],
          "data": "0x00000000000000000000000000000000000000000000000000000000004c4b40",
          "blockHash": "0xb00947a2e778bcd76fbb70f54334651e1472bd7f0baba1b026ce59a6eed46b94",
          "blockNumber": "0x391b783",
          "transactionHash": "0x16b97d5acc3c175e0b9b339e29036705f5adc7fe91379244634bce119bb5be31",
          "transactionIndex": "0x32",
          "logIndex": "0xac",
          "removed": false
        },
        {
          "address": "0xc2132d05d31c914a87c6611c10748aeb04b58e8f",
          "topics": [
            "0x8c5be1e5ebec7d5bd14f71427d1e84f3dd0314c0f7b2291e5b200ac8c7c3b925",
            "0x000000000000000000000000a4563cc4619191be18c3a01cc50d37eb456d102a",
            "0x000000000000000000000000abaabf95182937c379de2fc5689909e1f4c05bc2"
          ],
          "data": "0x0000000000000000000000000000000000000000000000000000000000000000",
          "blockHash": "0xb00947a2e778bcd76fbb70f54334651e1472bd7f0baba1b026ce59a6eed46b94",
          "blockNumber": "0x391b783",
          "transactionHash": "0x16b97d5acc3c175e0b9b339e29036705f5adc7fe91379244634bce119bb5be31",
          "transactionIndex": "0x32",
          "logIndex": "0xad",
          "removed": false
        },
        {
          "address": "0x0000000000000000000000000000000000001010",
          "topics": [
            "0xe6497e3ee548a3372136af2fcb0696db31fc6cf20260707645068bd3fe97f3c4",
            "0x0000000000000000000000000000000000000000000000000000000000001010",
            "0x000000000000000000000000abaabf95182937c379de2fc5689909e1f4c05bc2",
            "0x0000000000000000000000001a44076050125825900e736c501f859c50fe728c"
          ],
          "data": "0x000000000000000000000000000000000000000000000000150703696a95864b000000000000000000000000000000000000000000000000150703696a95864b00000000000000000000000000000000000000000000000000000000000000000000000000000000000000000000000000000000000000000000000000000000000000000000000000000000000000000000000000000000150703696a95864b",
          "blockHash": "0xb00947a2e778bcd76fbb70f54334651e1472bd7f0baba1b026ce59a6eed46b94",
          "blockNumber": "0x391b783",
          "transactionHash": "0x16b97d5acc3c175e0b9b339e29036705f5adc7fe91379244634bce119bb5be31",
          "transactionIndex": "0x32",
          "logIndex": "0xae",
          "removed": false
        },
        {
          "address": "0x6c26c61a97006888ea9e4fa36584c7df57cd9da3",
          "topics": [
            "0x61ed099e74a97a1d7f8bb0952a88ca8b7b8ebd00c126ea04671f92a81213318a"
          ],
          "data": "0x000000000000000000000000cd3f213ad101472e1713c72b1697e727c803885b00000000000000000000000000000000000000000000000014e358b6da33ae03",
          "blockHash": "0xb00947a2e778bcd76fbb70f54334651e1472bd7f0baba1b026ce59a6eed46b94",
          "blockNumber": "0x391b783",
          "transactionHash": "0x16b97d5acc3c175e0b9b339e29036705f5adc7fe91379244634bce119bb5be31",
          "transactionIndex": "0x32",
          "logIndex": "0xaf",
          "removed": false
        },
        {
          "address": "0x6c26c61a97006888ea9e4fa36584c7df57cd9da3",
          "topics": [
            "0x07ea52d82345d6e838192107d8fd7123d9c2ec8e916cd0aad13fd2b60db24644"
          ],
          "data": "0x000000000000000000000000000000000000000000000000000000000000006000000000000000000000000000000000000000000000000000000000000000c000000000000000000000000000000000000000000000000000000000000000e0000000000000000000000000000000000000000000000000000000000000000200000000000000000000000023de2fe932d9043291f870324b74f820e11dc81a000000000000000000000000d56e4eab23cb81f43168f9f45211eb027b9ac7cc000000000000000000000000000000000000000000000000000000000000000000000000000000000000000000000000000000000000000000000000000000020000000000000000000000000000000000000000000000000011d5594830ec240000000000000000000000000000000000000000000000000011d5594830ec24",
          "blockHash": "0xb00947a2e778bcd76fbb70f54334651e1472bd7f0baba1b026ce59a6eed46b94",
          "blockNumber": "0x391b783",
          "transactionHash": "0x16b97d5acc3c175e0b9b339e29036705f5adc7fe91379244634bce119bb5be31",
          "transactionIndex": "0x32",
          "logIndex": "0xb0",
          "removed": false
        },
        {
          "address": "0x1a44076050125825900e736c501f859c50fe728c",
          "topics": [
            "0x1ab700d4ced0c005b164c0f789fd09fcbb0156d4c2041b8a3bfbcd961cd1567f"
          ],
          "data": "0x000000000000000000000000000000000000000000000000000000000000006000000000000000000000000000000000000000000000000000000000000001c00000000000000000000000006c26c61a97006888ea9e4fa36584c7df57cd9da300000000000000000000000000000000000000000000000000000000000001310100000000000000080000759d000000000000000000000000abaabf95182937c379de2fc5689909e1f4c05bc2000075ae000000000000000000000000f0db811f8edffc9dbe0ef99fbbafaacf6df7e3f03d3e8ab67b15bb52b3dbd3c05d22e01da4e8e3ec7f6e7cd9ede79d51f112289921e370ed000000000000000000000000000000000000000000000000000000005737fe27be7c9cb0e47a04ea2842aa97a74285588b5977293910c63a90b05e16000000000000000000000000000000000000000000000000000000000000000100000000000000000000000000000000000000000000000000000000004c4b400000000000000000000000000000000000000000000000000000000000000089000000000000000000000000a4563cc4619191be18c3a01cc50d37eb456d102a00000000000000000000000000000000000000000000000000000000000000000000000000000000000000000000160003010011010000000000000000000000000007a12000000000000000000000",
          "blockHash": "0xb00947a2e778bcd76fbb70f54334651e1472bd7f0baba1b026ce59a6eed46b94",
          "blockNumber": "0x391b783",
          "transactionHash": "0x16b97d5acc3c175e0b9b339e29036705f5adc7fe91379244634bce119bb5be31",
          "transactionIndex": "0x32",
          "logIndex": "0xb1",
          "removed": false
        },
        {
          "address": "0x0000000000000000000000000000000000001010",
          "topics": [
            "0xe6497e3ee548a3372136af2fcb0696db31fc6cf20260707645068bd3fe97f3c4",
            "0x0000000000000000000000000000000000000000000000000000000000001010",
            "0x0000000000000000000000001a44076050125825900e736c501f859c50fe728c",
            "0x0000000000000000000000006c26c61a97006888ea9e4fa36584c7df57cd9da3"
          ],
          "data": "0x000000000000000000000000000000000000000000000000150703696a95864b000000000000000000000000000000000000000000000000150703696a95864b0000000000000000000000000000000000000000000003ac609333f078b9dbad00000000000000000000000000000000000000000000000000000000000000000000000000000000000000000000000000000000000003ac759a3759e34f61f8",
          "blockHash": "0xb00947a2e778bcd76fbb70f54334651e1472bd7f0baba1b026ce59a6eed46b94",
          "blockNumber": "0x391b783",
          "transactionHash": "0x16b97d5acc3c175e0b9b339e29036705f5adc7fe91379244634bce119bb5be31",
          "transactionIndex": "0x32",
          "logIndex": "0xb2",
          "removed": false
        },
        {
          "address": "0x0000000000000000000000000000000000001010",
          "topics": [
            "0x4dfe1bbbcf077ddc3e01291eea2d5c70c2b422b415d95645b9adcfd678cb1d63",
            "0x0000000000000000000000000000000000000000000000000000000000001010",
            "0x000000000000000000000000a4563cc4619191be18c3a01cc50d37eb456d102a",
            "0x000000000000000000000000b95d435df3f8b2a8d8b9c2b7c8766c9ae6ed8cc9"
          ],
          "data": "0x000000000000000000000000000000000000000000000000002099506f6404000000000000000000000000000000000000000000000000016b3330b8c9666b07000000000000000000000000000000000000000000000006a69e1b5968b44f650000000000000000000000000000000000000000000000016b1297685a026707000000000000000000000000000000000000000000000006a6beb4a9d8185365",
          "blockHash": "0xb00947a2e778bcd76fbb70f54334651e1472bd7f0baba1b026ce59a6eed46b94",
          "blockNumber": "0x391b783",
          "transactionHash": "0x16b97d5acc3c175e0b9b339e29036705f5adc7fe91379244634bce119bb5be31",
          "transactionIndex": "0x32",
          "logIndex": "0xb3",
          "removed": false
        }
      ],
      "logsBloom": "0x00000000000000000000008000000000000000000000000000000004001000000010004000000000000000100002000100008000000000002000000000200000800080000000000000000008000000800000000000000000000100000000000100000000000000008000000000000000000000000010000080200010400000000000000000080000000000080000000000000000000000000000010000000000220000008000000000100000000000800000000000400000000440000000004000000002400000040001000000000020400000000000801000188000000000000010040000000000000000000000002000000000010000000000000000100000",
      "type": "0x2",
      "transactionHash": "0x16b97d5acc3c175e0b9b339e29036705f5adc7fe91379244634bce119bb5be31",
      "transactionIndex": "0x32",
      "blockHash": "0xb00947a2e778bcd76fbb70f54334651e1472bd7f0baba1b026ce59a6eed46b94",
      "blockNumber": "0x391b783",
      "gasUsed": "0x4aac3",
      "effectiveGasPrice": "0x6fc23ac18",
      "from": "0xa4563cc4619191be18c3a01cc50d37eb456d102a",
      "to": "0xabaabf95182937c379de2fc5689909e1f4c05bc2",
      "contractAddress": null
    }
  ],
  "libraries": [],
  "pending": [],
  "returns": {},
  "timestamp": 1722106815,
  "chain": 137,
  "commit": "a756be8"
}