{
  "transactions": [
    {
      "hash": "0x862df706bd56f967f3b83ddb77162873bb55e41d4aaf19533ca119c30febdc82",
      "transactionType": "CALL",
      "contractName": null,
      "contractAddress": "0xb89e0186ae46b433b3bb08a570dc437a277453e7",
      "function": "createDuel((string,string,string,uint256,uint256,address,uint256))",
      "arguments": [
        "(\"Test VS Test\", \"This is a description of test vs test\", \"Test function fighting test function\", 1722889319, 1722888419, 0xa4563Cc4619191bE18C3A01Cc50D37EB456d102a, 0)"
      ],
      "transaction": {
        "from": "0xa4563cc4619191be18c3a01cc50d37eb456d102a",
        "to": "0xb89e0186ae46b433b3bb08a570dc437a277453e7",
        "gas": "0x8e82a",
        "value": "0x1cca378e740d0c60",
        "input": "0xc3bee495000000000000000000000000000000000000000000000000000000000000002000000000000000000000000000000000000000000000000000000000000000e0000000000000000000000000000000000000000000000000000000000000012000000000000000000000000000000000000000000000000000000000000001800000000000000000000000000000000000000000000000000000000066b134670000000000000000000000000000000000000000000000000000000066b130e3000000000000000000000000a4563cc4619191be18c3a01cc50d37eb456d102a0000000000000000000000000000000000000000000000000000000000000000000000000000000000000000000000000000000000000000000000000000000c54657374205653205465737400000000000000000000000000000000000000000000000000000000000000000000000000000000000000000000000000000025546869732069732061206465736372697074696f6e206f66207465737420767320746573740000000000000000000000000000000000000000000000000000000000000000000000000000000000000000000000000000000000000000000024546573742066756e6374696f6e206669676874696e6720746573742066756e6374696f6e00000000000000000000000000000000000000000000000000000000",
        "nonce": "0x43",
        "chainId": "0x89"
      },
      "additionalContracts": [],
      "isFixedGasLimit": false
    }
  ],
  "receipts": [
    {
      "status": "0x1",
      "cumulativeGasUsed": "0x8e2ce5",
      "logs": [
        {
          "address": "0x0000000000000000000000000000000000001010",
          "topics": [
            "0xe6497e3ee548a3372136af2fcb0696db31fc6cf20260707645068bd3fe97f3c4",
            "0x0000000000000000000000000000000000000000000000000000000000001010",
            "0x000000000000000000000000a4563cc4619191be18c3a01cc50d37eb456d102a",
            "0x000000000000000000000000b89e0186ae46b433b3bb08a570dc437a277453e7"
          ],
          "data": "0x0000000000000000000000000000000000000000000000001cca378e740d0c60000000000000000000000000000000000000000000000001471ffc946f23ba6500000000000000000000000000000000000000000000000000000000000000000000000000000000000000000000000000000000000000012a55c505fb16ae050000000000000000000000000000000000000000000000001cca378e740d0c60",
          "blockHash": "0x5d7cd604ec96ddd741a9ee069bebbc76712bc8c99269a5fd438e478ec7b85f29",
          "blockNumber": "0x3971831",
          "transactionHash": "0x862df706bd56f967f3b83ddb77162873bb55e41d4aaf19533ca119c30febdc82",
          "transactionIndex": "0x35",
          "logIndex": "0xfe",
          "removed": false
        },
        {
          "address": "0x0000000000000000000000000000000000001010",
          "topics": [
            "0xe6497e3ee548a3372136af2fcb0696db31fc6cf20260707645068bd3fe97f3c4",
            "0x0000000000000000000000000000000000000000000000000000000000001010",
            "0x000000000000000000000000b89e0186ae46b433b3bb08a570dc437a277453e7",
            "0x0000000000000000000000001a44076050125825900e736c501f859c50fe728c"
          ],
          "data": "0x0000000000000000000000000000000000000000000000001cca378e740d0c600000000000000000000000000000000000000000000000001cca378e740d0c60000000000000000000000000000000000000000000000000000000000000000000000000000000000000000000000000000000000000000000000000000000000000000000000000000000000000000000000000000000001cca378e740d0c60",
          "blockHash": "0x5d7cd604ec96ddd741a9ee069bebbc76712bc8c99269a5fd438e478ec7b85f29",
          "blockNumber": "0x3971831",
          "transactionHash": "0x862df706bd56f967f3b83ddb77162873bb55e41d4aaf19533ca119c30febdc82",
          "transactionIndex": "0x35",
          "logIndex": "0xff",
          "removed": false
        },
        {
          "address": "0x6c26c61a97006888ea9e4fa36584c7df57cd9da3",
          "topics": [
            "0x61ed099e74a97a1d7f8bb0952a88ca8b7b8ebd00c126ea04671f92a81213318a"
          ],
          "data": "0x000000000000000000000000cd3f213ad101472e1713c72b1697e727c803885b0000000000000000000000000000000000000000000000001ca76c79266fbbca",
          "blockHash": "0x5d7cd604ec96ddd741a9ee069bebbc76712bc8c99269a5fd438e478ec7b85f29",
          "blockNumber": "0x3971831",
          "transactionHash": "0x862df706bd56f967f3b83ddb77162873bb55e41d4aaf19533ca119c30febdc82",
          "transactionIndex": "0x35",
          "logIndex": "0x100",
          "removed": false
        },
        {
          "address": "0x6c26c61a97006888ea9e4fa36584c7df57cd9da3",
          "topics": [
            "0x07ea52d82345d6e838192107d8fd7123d9c2ec8e916cd0aad13fd2b60db24644"
          ],
          "data": "0x000000000000000000000000000000000000000000000000000000000000006000000000000000000000000000000000000000000000000000000000000000c000000000000000000000000000000000000000000000000000000000000000e0000000000000000000000000000000000000000000000000000000000000000200000000000000000000000023de2fe932d9043291f870324b74f820e11dc81a000000000000000000000000d56e4eab23cb81f43168f9f45211eb027b9ac7cc000000000000000000000000000000000000000000000000000000000000000000000000000000000000000000000000000000000000000000000000000000020000000000000000000000000000000000000000000000000011658aa6cea84b0000000000000000000000000000000000000000000000000011658aa6cea84b",
          "blockHash": "0x5d7cd604ec96ddd741a9ee069bebbc76712bc8c99269a5fd438e478ec7b85f29",
          "blockNumber": "0x3971831",
          "transactionHash": "0x862df706bd56f967f3b83ddb77162873bb55e41d4aaf19533ca119c30febdc82",
          "transactionIndex": "0x35",
          "logIndex": "0x101",
          "removed": false
        },
        {
          "address": "0x1a44076050125825900e736c501f859c50fe728c",
          "topics": [
            "0x1ab700d4ced0c005b164c0f789fd09fcbb0156d4c2041b8a3bfbcd961cd1567f"
          ],
          "data": "0x000000000000000000000000000000000000000000000000000000000000006000000000000000000000000000000000000000000000000000000000000003600000000000000000000000006c26c61a97006888ea9e4fa36584c7df57cd9da300000000000000000000000000000000000000000000000000000000000002d10100000000000000010000759d000000000000000000000000b89e0186ae46b433b3bb08a570dc437a277453e7000075ae000000000000000000000000f0db811f8edffc9dbe0ef99fbbafaacf6df7e3f023ae741d7253e83985e4c7ef021441c9bc7572d4f6cfbba14aa9668f63e3c1c41c40065c0000000000000000000000000000000000000000000000000000000000000000000000000000000000000000000000000000000000000000000000800000000000000000000000000000000000000000000000000000000000000089000000000000000000000000a4563cc4619191be18c3a01cc50d37eb456d102a00000000000000000000000000000000000000000000000000000000000000e0000000000000000000000000000000000000000000000000000000000000012000000000000000000000000000000000000000000000000000000000000001800000000000000000000000000000000000000000000000000000000066b134670000000000000000000000000000000000000000000000000000000066b130e3000000000000000000000000a4563cc4619191be18c3a01cc50d37eb456d102a0000000000000000000000000000000000000000000000000000000000000000000000000000000000000000000000000000000000000000000000000000000c54657374205653205465737400000000000000000000000000000000000000000000000000000000000000000000000000000000000000000000000000000025546869732069732061206465736372697074696f6e206f66207465737420767320746573740000000000000000000000000000000000000000000000000000000000000000000000000000000000000000000000000000000000000000000024546573742066756e6374696f6e206669676874696e6720746573742066756e6374696f6e0000000000000000000000000000000000000000000000000000000000000000000000000000000000000000000000000000000000000000000000000000000000000000000000000000160003010011010000000000000000000000000007a12000000000000000000000",
          "blockHash": "0x5d7cd604ec96ddd741a9ee069bebbc76712bc8c99269a5fd438e478ec7b85f29",
          "blockNumber": "0x3971831",
          "transactionHash": "0x862df706bd56f967f3b83ddb77162873bb55e41d4aaf19533ca119c30febdc82",
          "transactionIndex": "0x35",
          "logIndex": "0x102",
          "removed": false
        },
        {
          "address": "0x0000000000000000000000000000000000001010",
          "topics": [
            "0xe6497e3ee548a3372136af2fcb0696db31fc6cf20260707645068bd3fe97f3c4",
            "0x0000000000000000000000000000000000000000000000000000000000001010",
            "0x0000000000000000000000001a44076050125825900e736c501f859c50fe728c",
            "0x0000000000000000000000006c26c61a97006888ea9e4fa36584c7df57cd9da3"
          ],
          "data": "0x0000000000000000000000000000000000000000000000001cca378e740d0c600000000000000000000000000000000000000000000000001cca378e740d0c600000000000000000000000000000000000000000000004c46da94768b3d61ec300000000000000000000000000000000000000000000000000000000000000000000000000000000000000000000000000000000000004c48a737ef727e32b23",
          "blockHash": "0x5d7cd604ec96ddd741a9ee069bebbc76712bc8c99269a5fd438e478ec7b85f29",
          "blockNumber": "0x3971831",
          "transactionHash": "0x862df706bd56f967f3b83ddb77162873bb55e41d4aaf19533ca119c30febdc82",
          "transactionIndex": "0x35",
          "logIndex": "0x103",
          "removed": false
        },
        {
          "address": "0x0000000000000000000000000000000000001010",
          "topics": [
            "0x4dfe1bbbcf077ddc3e01291eea2d5c70c2b422b415d95645b9adcfd678cb1d63",
            "0x0000000000000000000000000000000000000000000000000000000000001010",
            "0x000000000000000000000000a4563cc4619191be18c3a01cc50d37eb456d102a",
            "0x0000000000000000000000009ead03f7136fc6b4bdb0780b00a1c14ae5a8b6d0"
          ],
          "data": "0x000000000000000000000000000000000000000000000000002d0ab5d328bc00000000000000000000000000000000000000000000000001476e2bd096587a41000000000000000000000000000000000000000000000a75804b1b3bd27456540000000000000000000000000000000000000000000000014741211ac32fbe41000000000000000000000000000000000000000000000a75807825f1a59d1254",
          "blockHash": "0x5d7cd604ec96ddd741a9ee069bebbc76712bc8c99269a5fd438e478ec7b85f29",
          "blockNumber": "0x3971831",
          "transactionHash": "0x862df706bd56f967f3b83ddb77162873bb55e41d4aaf19533ca119c30febdc82",
          "transactionIndex": "0x35",
          "logIndex": "0x104",
          "removed": false
        }
      ],
      "logsBloom": "0x00000000000000000000008000000000000000000000000000000004001000000010004000000000000000100002000000008000000000002000000000000000000080000000000000000000000000800000000000000000000100000000000000000000000000008000000000000000000000000010000080a000000000000000400000000400000000000800000000000000001000000000000100000000002000000080000000001000000000008000000000004000000004400000000040000000000000000000010000000000000000000000008010001a8000000000000000040000000000000080000000002000000000010000000000000000100000",
      "type": "0x2",
      "transactionHash": "0x862df706bd56f967f3b83ddb77162873bb55e41d4aaf19533ca119c30febdc82",
      "transactionIndex": "0x35",
      "blockHash": "0x5d7cd604ec96ddd741a9ee069bebbc76712bc8c99269a5fd438e478ec7b85f29",
      "blockNumber": "0x3971831",
      "gasUsed": "0x672cd",
      "effectiveGasPrice": "0x8c729b5b6",
      "from": "0xa4563cc4619191be18c3a01cc50d37eb456d102a",
      "to": "0xb89e0186ae46b433b3bb08a570dc437a277453e7",
      "contractAddress": null
    }
  ],
  "libraries": [],
  "pending": [],
  "returns": {},
  "timestamp": 1722885751,
  "chain": 137,
  "commit": "a756be8"
}